{
	"data": {
		"bytecode": {
			"linkReferences": {},
			"object": "6080604052348015600f57600080fd5b5060858061001e6000396000f3fe6080604052348015600f57600080fd5b506004361060285760003560e01c8063471f7cdf14602d575b600080fd5b60336049565b6040518082815260200191505060405180910390f35b6000548156fea264697066735822122025f44465e85190d0ad513051f9dfda86790f1f57c607dd9d5b2b7464b34b5eae64736f6c63430006060033",
			"opcodes": "PUSH1 0x80 PUSH1 0x40 MSTORE CALLVALUE DUP1 ISZERO PUSH1 0xF JUMPI PUSH1 0x0 DUP1 REVERT JUMPDEST POP PUSH1 0x85 DUP1 PUSH2 0x1E PUSH1 0x0 CODECOPY PUSH1 0x0 RETURN INVALID PUSH1 0x80 PUSH1 0x40 MSTORE CALLVALUE DUP1 ISZERO PUSH1 0xF JUMPI PUSH1 0x0 DUP1 REVERT JUMPDEST POP PUSH1 0x4 CALLDATASIZE LT PUSH1 0x28 JUMPI PUSH1 0x0 CALLDATALOAD PUSH1 0xE0 SHR DUP1 PUSH4 0x471F7CDF EQ PUSH1 0x2D JUMPI JUMPDEST PUSH1 0x0 DUP1 REVERT JUMPDEST PUSH1 0x33 PUSH1 0x49 JUMP JUMPDEST PUSH1 0x40 MLOAD DUP1 DUP3 DUP2 MSTORE PUSH1 0x20 ADD SWAP2 POP POP PUSH1 0x40 MLOAD DUP1 SWAP2 SUB SWAP1 RETURN JUMPDEST PUSH1 0x0 SLOAD DUP2 JUMP INVALID LOG2 PUSH5 0x6970667358 0x22 SLT KECCAK256 0x25 DELEGATECALL DIFFICULTY PUSH6 0xE85190D0AD51 ADDRESS MLOAD 0xF9 0xDF 0xDA DUP7 PUSH26 0xF1F57C607DD9D5B2B7464B34B5EAE64736F6C63430006060033 "
		},
		"gasEstimates": {
			"creation": {
				"codeDepositCost": "26600",
				"executionCost": "81",
				"totalCost": "26681"
			},
			"external": {
				"favoriteNumber()": "983"
			},
			"internal": {
				"store(uint256)": "infinite"
			}
		},
		"methodIdentifiers": {
			"favoriteNumber()": "471f7cdf"
		}
	},
	"abi": [
		{
			"inputs": [],
			"name": "favoriteNumber",
			"outputs": [
				{
					"internalType": "uint256",
					"name": "",
					"type": "uint256"
				}
			],
			"stateMutability": "view",
			"type": "function"
		}
	]
}